{
  "contractName": "BloggerNFT",
  "abi": [
    {
      "inputs": [],
      "stateMutability": "nonpayable",
      "type": "constructor"
    },
    {
      "anonymous": false,
      "inputs": [
        {
          "indexed": true,
          "internalType": "address",
          "name": "owner",
          "type": "address"
        },
        {
          "indexed": true,
          "internalType": "address",
          "name": "approved",
          "type": "address"
        },
        {
          "indexed": true,
          "internalType": "uint256",
          "name": "tokenId",
          "type": "uint256"
        }
      ],
      "name": "Approval",
      "type": "event"
    },
    {
      "anonymous": false,
      "inputs": [
        {
          "indexed": true,
          "internalType": "address",
          "name": "owner",
          "type": "address"
        },
        {
          "indexed": true,
          "internalType": "address",
          "name": "operator",
          "type": "address"
        },
        {
          "indexed": false,
          "internalType": "bool",
          "name": "approved",
          "type": "bool"
        }
      ],
      "name": "ApprovalForAll",
      "type": "event"
    },
    {
      "anonymous": false,
      "inputs": [
        {
          "indexed": true,
          "internalType": "address",
          "name": "previousOwner",
          "type": "address"
        },
        {
          "indexed": true,
          "internalType": "address",
          "name": "newOwner",
          "type": "address"
        }
      ],
      "name": "OwnershipTransferred",
      "type": "event"
    },
    {
      "anonymous": false,
      "inputs": [
        {
          "indexed": false,
          "internalType": "uint256",
          "name": "",
          "type": "uint256"
        }
      ],
      "name": "SupplyCount",
      "type": "event"
    },
    {
      "anonymous": false,
      "inputs": [
        {
          "indexed": true,
          "internalType": "address",
          "name": "from",
          "type": "address"
        },
        {
          "indexed": true,
          "internalType": "address",
          "name": "to",
          "type": "address"
        },
        {
          "indexed": true,
          "internalType": "uint256",
          "name": "tokenId",
          "type": "uint256"
        }
      ],
      "name": "Transfer",
      "type": "event"
    },
    {
      "stateMutability": "payable",
      "type": "fallback",
      "payable": true
    },
    {
      "inputs": [
        {
          "internalType": "address",
          "name": "to",
          "type": "address"
        },
        {
          "internalType": "uint256",
          "name": "tokenId",
          "type": "uint256"
        }
      ],
      "name": "approve",
      "outputs": [],
      "stateMutability": "nonpayable",
      "type": "function"
    },
    {
      "inputs": [
        {
          "internalType": "address",
          "name": "owner",
          "type": "address"
        }
      ],
      "name": "balanceOf",
      "outputs": [
        {
          "internalType": "uint256",
          "name": "",
          "type": "uint256"
        }
      ],
      "stateMutability": "view",
      "type": "function",
      "constant": true
    },
    {
      "inputs": [
        {
          "internalType": "uint256",
          "name": "tokenId",
          "type": "uint256"
        }
      ],
      "name": "getApproved",
      "outputs": [
        {
          "internalType": "address",
          "name": "",
          "type": "address"
        }
      ],
      "stateMutability": "view",
      "type": "function",
      "constant": true
    },
    {
      "inputs": [
        {
          "internalType": "uint256",
          "name": "",
          "type": "uint256"
        }
      ],
      "name": "id_to_data",
      "outputs": [
        {
          "internalType": "string",
          "name": "url",
          "type": "string"
        },
        {
          "internalType": "uint256",
          "name": "price",
          "type": "uint256"
        },
        {
          "internalType": "uint16",
          "name": "year",
          "type": "uint16"
        }
      ],
      "stateMutability": "view",
      "type": "function",
      "constant": true
    },
    {
      "inputs": [
        {
          "internalType": "address",
          "name": "owner",
          "type": "address"
        },
        {
          "internalType": "address",
          "name": "operator",
          "type": "address"
        }
      ],
      "name": "isApprovedForAll",
      "outputs": [
        {
          "internalType": "bool",
          "name": "",
          "type": "bool"
        }
      ],
      "stateMutability": "view",
      "type": "function",
      "constant": true
    },
    {
      "inputs": [],
      "name": "name",
      "outputs": [
        {
          "internalType": "string",
          "name": "",
          "type": "string"
        }
      ],
      "stateMutability": "view",
      "type": "function",
      "constant": true
    },
    {
      "inputs": [],
      "name": "owner",
      "outputs": [
        {
          "internalType": "address",
          "name": "",
          "type": "address"
        }
      ],
      "stateMutability": "view",
      "type": "function",
      "constant": true
    },
    {
      "inputs": [
        {
          "internalType": "uint256",
          "name": "tokenId",
          "type": "uint256"
        }
      ],
      "name": "ownerOf",
      "outputs": [
        {
          "internalType": "address",
          "name": "",
          "type": "address"
        }
      ],
      "stateMutability": "view",
      "type": "function",
      "constant": true
    },
    {
      "inputs": [],
      "name": "renounceOwnership",
      "outputs": [],
      "stateMutability": "nonpayable",
      "type": "function"
    },
    {
      "inputs": [
        {
          "internalType": "address",
          "name": "from",
          "type": "address"
        },
        {
          "internalType": "address",
          "name": "to",
          "type": "address"
        },
        {
          "internalType": "uint256",
          "name": "tokenId",
          "type": "uint256"
        }
      ],
      "name": "safeTransferFrom",
      "outputs": [],
      "stateMutability": "nonpayable",
      "type": "function"
    },
    {
      "inputs": [
        {
          "internalType": "address",
          "name": "from",
          "type": "address"
        },
        {
          "internalType": "address",
          "name": "to",
          "type": "address"
        },
        {
          "internalType": "uint256",
          "name": "tokenId",
          "type": "uint256"
        },
        {
          "internalType": "bytes",
          "name": "_data",
          "type": "bytes"
        }
      ],
      "name": "safeTransferFrom",
      "outputs": [],
      "stateMutability": "nonpayable",
      "type": "function"
    },
    {
      "inputs": [
        {
          "internalType": "address",
          "name": "operator",
          "type": "address"
        },
        {
          "internalType": "bool",
          "name": "approved",
          "type": "bool"
        }
      ],
      "name": "setApprovalForAll",
      "outputs": [],
      "stateMutability": "nonpayable",
      "type": "function"
    },
    {
      "inputs": [
        {
          "internalType": "bytes4",
          "name": "interfaceId",
          "type": "bytes4"
        }
      ],
      "name": "supportsInterface",
      "outputs": [
        {
          "internalType": "bool",
          "name": "",
          "type": "bool"
        }
      ],
      "stateMutability": "view",
      "type": "function",
      "constant": true
    },
    {
      "inputs": [],
      "name": "symbol",
      "outputs": [
        {
          "internalType": "string",
          "name": "",
          "type": "string"
        }
      ],
      "stateMutability": "view",
      "type": "function",
      "constant": true
    },
    {
      "inputs": [
        {
          "internalType": "uint256",
          "name": "tokenId",
          "type": "uint256"
        }
      ],
      "name": "tokenURI",
      "outputs": [
        {
          "internalType": "string",
          "name": "",
          "type": "string"
        }
      ],
      "stateMutability": "view",
      "type": "function",
      "constant": true
    },
    {
      "inputs": [],
      "name": "totalSupply",
      "outputs": [
        {
          "internalType": "uint256",
          "name": "",
          "type": "uint256"
        }
      ],
      "stateMutability": "view",
      "type": "function",
      "constant": true
    },
    {
      "inputs": [
        {
          "internalType": "address",
          "name": "from",
          "type": "address"
        },
        {
          "internalType": "address",
          "name": "to",
          "type": "address"
        },
        {
          "internalType": "uint256",
          "name": "tokenId",
          "type": "uint256"
        }
      ],
      "name": "transferFrom",
      "outputs": [],
      "stateMutability": "nonpayable",
      "type": "function"
    },
    {
      "inputs": [
        {
          "internalType": "address",
          "name": "newOwner",
          "type": "address"
        }
      ],
      "name": "transferOwnership",
      "outputs": [],
      "stateMutability": "nonpayable",
      "type": "function"
    },
    {
      "stateMutability": "payable",
      "type": "receive",
      "payable": true
    },
    {
      "inputs": [
        {
          "internalType": "string",
          "name": "url",
          "type": "string"
        },
        {
          "internalType": "uint256",
          "name": "price",
          "type": "uint256"
        },
        {
          "internalType": "uint16",
          "name": "year",
          "type": "uint16"
        }
      ],
      "name": "mint_external",
      "outputs": [
        {
          "internalType": "uint256",
          "name": "",
          "type": "uint256"
        }
      ],
      "stateMutability": "payable",
      "type": "function",
      "payable": true
    },
    {
      "inputs": [
        {
          "internalType": "uint256",
          "name": "tokenId",
          "type": "uint256"
        }
      ],
      "name": "getPrice",
      "outputs": [
        {
          "internalType": "string",
          "name": "",
          "type": "string"
        },
        {
          "internalType": "uint256",
          "name": "",
          "type": "uint256"
        },
        {
          "internalType": "uint16",
          "name": "",
          "type": "uint16"
        }
      ],
      "stateMutability": "view",
      "type": "function",
      "constant": true
    },
    {
      "inputs": [
        {
          "internalType": "uint256",
          "name": "tokenId",
          "type": "uint256"
        },
        {
          "internalType": "address",
          "name": "buyer",
          "type": "address"
        },
        {
          "internalType": "uint256",
          "name": "price",
          "type": "uint256"
        }
      ],
      "name": "sell_nft",
      "outputs": [],
      "stateMutability": "nonpayable",
      "type": "function"
    },
    {
      "inputs": [
        {
          "internalType": "uint256",
          "name": "tokenId",
          "type": "uint256"
        },
        {
          "internalType": "uint256",
          "name": "newPrice",
          "type": "uint256"
        }
      ],
      "name": "buy_nft",
      "outputs": [],
      "stateMutability": "payable",
      "type": "function",
      "payable": true
    },
    {
      "inputs": [
        {
          "internalType": "uint256",
          "name": "tokenId",
          "type": "uint256"
        }
      ],
      "name": "getOwnerOf",
      "outputs": [
        {
          "internalType": "address",
          "name": "",
          "type": "address"
        }
      ],
      "stateMutability": "view",
      "type": "function",
      "constant": true
    },
    {
      "inputs": [
        {
          "internalType": "uint256",
          "name": "tokenId",
          "type": "uint256"
        }
      ],
      "name": "getApproverOf",
      "outputs": [
        {
          "internalType": "address",
          "name": "",
          "type": "address"
        }
      ],
      "stateMutability": "view",
      "type": "function",
      "constant": true
    },
    {
      "inputs": [],
      "name": "getTotalSupply",
      "outputs": [
        {
          "internalType": "uint256",
          "name": "",
          "type": "uint256"
        }
      ],
      "stateMutability": "view",
      "type": "function",
      "constant": true
    },
    {
      "inputs": [
        {
          "internalType": "uint256",
          "name": "tokenId",
          "type": "uint256"
        }
      ],
      "name": "setApproverForSale",
      "outputs": [],
      "stateMutability": "nonpayable",
      "type": "function"
    }
  ],
  "bytecode": "0x60806040523480156200001157600080fd5b506040518060400160405280600a81526020017f426c6f676765724e4654000000000000000000000000000000000000000000008152506040518060400160405280600481526020017f424e4654000000000000000000000000000000000000000000000000000000008152506200009e62000092620000d860201b60201c565b620000e060201b60201c565b8160019080519060200190620000b6929190620001a4565b508060029080519060200190620000cf929190620001a4565b505050620002b9565b600033905090565b60008060009054906101000a900473ffffffffffffffffffffffffffffffffffffffff169050816000806101000a81548173ffffffffffffffffffffffffffffffffffffffff021916908373ffffffffffffffffffffffffffffffffffffffff1602179055508173ffffffffffffffffffffffffffffffffffffffff168173ffffffffffffffffffffffffffffffffffffffff167f8be0079c531659141344cd1fd0a4f28419497f9722a3daafe3b4186f6b6457e060405160405180910390a35050565b828054620001b29062000283565b90600052602060002090601f016020900481019282620001d6576000855562000222565b82601f10620001f157805160ff191683800117855562000222565b8280016001018555821562000222579182015b828111156200022157825182559160200191906001019062000204565b5b50905062000231919062000235565b5090565b5b808211156200025057600081600090555060010162000236565b5090565b7f4e487b7100000000000000000000000000000000000000000000000000000000600052602260045260246000fd5b600060028204905060018216806200029c57607f821691505b60208210811415620002b357620002b262000254565b5b50919050565b613b9f80620002c96000396000f3fe6080604052600436106101855760003560e01c8063715018a6116100d1578063c4e41b221161008a578063cbf7723911610064578063cbf77239146105d7578063e757223014610607578063e985e9c514610646578063f2fde38b14610683576101a7565b8063c4e41b2214610532578063c87b56dd1461055d578063c9ca20571461059a576101a7565b8063715018a614610436578063836387101461044d5780638da5cb5b1461048a57806395d89b41146104b5578063a22cb465146104e0578063b88d4fde14610509576101a7565b806323b872dd1161013e5780634da8ac18116101185780634da8ac18146103775780636352211e14610393578063699910d4146103d057806370a08231146103f9576101a7565b806323b872dd146102e65780632dc386f11461030f57806342842e0e1461034e576101a7565b806301ffc9a7146101c457806306fdde0314610201578063081812fc1461022c578063095ea7b31461026957806318160ddd14610292578063191fc166146102bd576101a7565b366101a7576001600860006101000a81548160ff021916908315150217905550005b6000600860006101000a81548160ff021916908315150217905550005b3480156101d057600080fd5b506101eb60048036038101906101e6919061253c565b6106ac565b6040516101f89190612584565b60405180910390f35b34801561020d57600080fd5b5061021661078e565b6040516102239190612638565b60405180910390f35b34801561023857600080fd5b50610253600480360381019061024e9190612690565b610820565b60405161026091906126fe565b60405180910390f35b34801561027557600080fd5b50610290600480360381019061028b9190612745565b6108a5565b005b34801561029e57600080fd5b506102a76109bd565b6040516102b49190612794565b60405180910390f35b3480156102c957600080fd5b506102e460048036038101906102df9190612690565b6109c3565b005b3480156102f257600080fd5b5061030d600480360381019061030891906127af565b6109d7565b005b34801561031b57600080fd5b5061033660048036038101906103319190612690565b610a37565b6040516103459392919061281f565b60405180910390f35b34801561035a57600080fd5b50610375600480360381019061037091906127af565b610af7565b005b610391600480360381019061038c919061285d565b610b17565b005b34801561039f57600080fd5b506103ba60048036038101906103b59190612690565b610c47565b6040516103c791906126fe565b60405180910390f35b3480156103dc57600080fd5b506103f760048036038101906103f2919061289d565b610cf9565b005b34801561040557600080fd5b50610420600480360381019061041b91906128f0565b610dc4565b60405161042d9190612794565b60405180910390f35b34801561044257600080fd5b5061044b610e7c565b005b34801561045957600080fd5b50610474600480360381019061046f9190612690565b610f04565b60405161048191906126fe565b60405180910390f35b34801561049657600080fd5b5061049f610f16565b6040516104ac91906126fe565b60405180910390f35b3480156104c157600080fd5b506104ca610f3f565b6040516104d79190612638565b60405180910390f35b3480156104ec57600080fd5b5061050760048036038101906105029190612949565b610fd1565b005b34801561051557600080fd5b50610530600480360381019061052b9190612abe565b610fe7565b005b34801561053e57600080fd5b50610547611049565b6040516105549190612794565b60405180910390f35b34801561056957600080fd5b50610584600480360381019061057f9190612690565b611053565b6040516105919190612638565b60405180910390f35b3480156105a657600080fd5b506105c160048036038101906105bc9190612690565b6111a5565b6040516105ce91906126fe565b60405180910390f35b6105f160048036038101906105ec9190612bcd565b6111b7565b6040516105fe9190612794565b60405180910390f35b34801561061357600080fd5b5061062e60048036038101906106299190612690565b611325565b60405161063d9392919061281f565b60405180910390f35b34801561065257600080fd5b5061066d60048036038101906106689190612c41565b611415565b60405161067a9190612584565b60405180910390f35b34801561068f57600080fd5b506106aa60048036038101906106a591906128f0565b6114a9565b005b60007f80ac58cd000000000000000000000000000000000000000000000000000000007bffffffffffffffffffffffffffffffffffffffffffffffffffffffff1916827bffffffffffffffffffffffffffffffffffffffffffffffffffffffff1916148061077757507f5b5e139f000000000000000000000000000000000000000000000000000000007bffffffffffffffffffffffffffffffffffffffffffffffffffffffff1916827bffffffffffffffffffffffffffffffffffffffffffffffffffffffff1916145b806107875750610786826115a1565b5b9050919050565b60606001805461079d90612cb0565b80601f01602080910402602001604051908101604052809291908181526020018280546107c990612cb0565b80156108165780601f106107eb57610100808354040283529160200191610816565b820191906000526020600020905b8154815290600101906020018083116107f957829003601f168201915b5050505050905090565b600061082b8261160b565b61086a576040517f08c379a000000000000000000000000000000000000000000000000000000000815260040161086190612d54565b60405180910390fd5b6005600083815260200190815260200160002060009054906101000a900473ffffffffffffffffffffffffffffffffffffffff169050919050565b60006108b082610c47565b90508073ffffffffffffffffffffffffffffffffffffffff168373ffffffffffffffffffffffffffffffffffffffff161415610921576040517f08c379a000000000000000000000000000000000000000000000000000000000815260040161091890612de6565b60405180910390fd5b8073ffffffffffffffffffffffffffffffffffffffff16610940611677565b73ffffffffffffffffffffffffffffffffffffffff16148061096f575061096e81610969611677565b611415565b5b6109ae576040517f08c379a00000000000000000000000000000000000000000000000000000000081526004016109a590612e78565b60405180910390fd5b6109b8838361167f565b505050565b60095481565b6109d46109ce610f16565b826108a5565b50565b6109e86109e2611677565b82611738565b610a27576040517f08c379a0000000000000000000000000000000000000000000000000000000008152600401610a1e90612f0a565b60405180910390fd5b610a32838383611816565b505050565b600a602052806000526040600020600091509050806000018054610a5a90612cb0565b80601f0160208091040260200160405190810160405280929190818152602001828054610a8690612cb0565b8015610ad35780601f10610aa857610100808354040283529160200191610ad3565b820191906000526020600020905b815481529060010190602001808311610ab657829003601f168201915b5050505050908060010154908060020160009054906101000a900461ffff16905083565b610b1283838360405180602001604052806000815250610fe7565b505050565b6000600a600084815260200190815260200160002060010154905081600a60008581526020019081526020016000206001018190555080341015610b90576040517f08c379a0000000000000000000000000000000000000000000000000000000008152600401610b8790612f9c565b60405180910390fd5b60003073ffffffffffffffffffffffffffffffffffffffff168261753090604051610bba90612fed565b600060405180830381858888f193505050503d8060008114610bf8576040519150601f19603f3d011682016040523d82523d6000602084013e610bfd565b606091505b5050905080610c41576040517f08c379a0000000000000000000000000000000000000000000000000000000008152600401610c389061304e565b60405180910390fd5b50505050565b6000806003600084815260200190815260200160002060009054906101000a900473ffffffffffffffffffffffffffffffffffffffff169050600073ffffffffffffffffffffffffffffffffffffffff168173ffffffffffffffffffffffffffffffffffffffff161415610cf0576040517f08c379a0000000000000000000000000000000000000000000000000000000008152600401610ce7906130e0565b60405180910390fd5b80915050919050565b6000610d0484610c47565b9050610d118184866109d7565b60008173ffffffffffffffffffffffffffffffffffffffff1683604051610d3790612fed565b60006040518083038185875af1925050503d8060008114610d74576040519150601f19603f3d011682016040523d82523d6000602084013e610d79565b606091505b5050905080610dbd576040517f08c379a0000000000000000000000000000000000000000000000000000000008152600401610db49061304e565b60405180910390fd5b5050505050565b60008073ffffffffffffffffffffffffffffffffffffffff168273ffffffffffffffffffffffffffffffffffffffff161415610e35576040517f08c379a0000000000000000000000000000000000000000000000000000000008152600401610e2c90613172565b60405180910390fd5b600460008373ffffffffffffffffffffffffffffffffffffffff1673ffffffffffffffffffffffffffffffffffffffff168152602001908152602001600020549050919050565b610e84611677565b73ffffffffffffffffffffffffffffffffffffffff16610ea2610f16565b73ffffffffffffffffffffffffffffffffffffffff1614610ef8576040517f08c379a0000000000000000000000000000000000000000000000000000000008152600401610eef906131de565b60405180910390fd5b610f026000611a72565b565b6000610f0f82610c47565b9050919050565b60008060009054906101000a900473ffffffffffffffffffffffffffffffffffffffff16905090565b606060028054610f4e90612cb0565b80601f0160208091040260200160405190810160405280929190818152602001828054610f7a90612cb0565b8015610fc75780601f10610f9c57610100808354040283529160200191610fc7565b820191906000526020600020905b815481529060010190602001808311610faa57829003601f168201915b5050505050905090565b610fe3610fdc611677565b8383611b36565b5050565b610ff8610ff2611677565b83611738565b611037576040517f08c379a000000000000000000000000000000000000000000000000000000000815260040161102e90612f0a565b60405180910390fd5b61104384848484611ca3565b50505050565b6000600954905090565b606061105e8261160b565b61109d576040517f08c379a000000000000000000000000000000000000000000000000000000000815260040161109490613270565b60405180910390fd5b60006007600084815260200190815260200160002080546110bd90612cb0565b80601f01602080910402602001604051908101604052809291908181526020018280546110e990612cb0565b80156111365780601f1061110b57610100808354040283529160200191611136565b820191906000526020600020905b81548152906001019060200180831161111957829003601f168201915b505050505090506000611147611cff565b905060008151141561115d5781925050506111a0565b60008251111561119257808260405160200161117a9291906132cc565b604051602081830303815290604052925050506111a0565b61119b84611d16565b925050505b919050565b60006111b082610820565b9050919050565b600067016345785d8a00003414611203576040517f08c379a00000000000000000000000000000000000000000000000000000000081526004016111fa90613362565b60405180910390fd5b61125285858080601f016020809104026020016040519081016040528093929190818152602001838380828437600081840152601f19601f820116905080830192505050505050508484611dbd565b61127161125d610f16565b600160095461126c91906133b1565b6108a5565b611279610f16565b73ffffffffffffffffffffffffffffffffffffffff166108fc67016345785d8a00009081150290604051600060405180830381858888f193505050501580156112c6573d6000803e3d6000fd5b507f5a5f9f294599004705c80a700a4caf642428c1b2a097f8c774f977f4c38da50160016009546112f791906133b1565b6040516113049190612794565b60405180910390a1600160095461131b91906133b1565b9050949350505050565b6060600080600a6000858152602001908152602001600020600001600a600086815260200190815260200160002060010154600a600087815260200190815260200160002060020160009054906101000a900461ffff1682805461138890612cb0565b80601f01602080910402602001604051908101604052809291908181526020018280546113b490612cb0565b80156114015780601f106113d657610100808354040283529160200191611401565b820191906000526020600020905b8154815290600101906020018083116113e457829003601f168201915b505050505092509250925092509193909250565b6000600660008473ffffffffffffffffffffffffffffffffffffffff1673ffffffffffffffffffffffffffffffffffffffff16815260200190815260200160002060008373ffffffffffffffffffffffffffffffffffffffff1673ffffffffffffffffffffffffffffffffffffffff16815260200190815260200160002060009054906101000a900460ff16905092915050565b6114b1611677565b73ffffffffffffffffffffffffffffffffffffffff166114cf610f16565b73ffffffffffffffffffffffffffffffffffffffff1614611525576040517f08c379a000000000000000000000000000000000000000000000000000000000815260040161151c906131de565b60405180910390fd5b600073ffffffffffffffffffffffffffffffffffffffff168173ffffffffffffffffffffffffffffffffffffffff161415611595576040517f08c379a000000000000000000000000000000000000000000000000000000000815260040161158c90613457565b60405180910390fd5b61159e81611a72565b50565b60007f01ffc9a7000000000000000000000000000000000000000000000000000000007bffffffffffffffffffffffffffffffffffffffffffffffffffffffff1916827bffffffffffffffffffffffffffffffffffffffffffffffffffffffff1916149050919050565b60008073ffffffffffffffffffffffffffffffffffffffff166003600084815260200190815260200160002060009054906101000a900473ffffffffffffffffffffffffffffffffffffffff1673ffffffffffffffffffffffffffffffffffffffff1614159050919050565b600033905090565b816005600083815260200190815260200160002060006101000a81548173ffffffffffffffffffffffffffffffffffffffff021916908373ffffffffffffffffffffffffffffffffffffffff160217905550808273ffffffffffffffffffffffffffffffffffffffff166116f283610c47565b73ffffffffffffffffffffffffffffffffffffffff167f8c5be1e5ebec7d5bd14f71427d1e84f3dd0314c0f7b2291e5b200ac8c7c3b92560405160405180910390a45050565b60006117438261160b565b611782576040517f08c379a0000000000000000000000000000000000000000000000000000000008152600401611779906134e9565b60405180910390fd5b600061178d83610c47565b90508073ffffffffffffffffffffffffffffffffffffffff168473ffffffffffffffffffffffffffffffffffffffff1614806117fc57508373ffffffffffffffffffffffffffffffffffffffff166117e484610820565b73ffffffffffffffffffffffffffffffffffffffff16145b8061180d575061180c8185611415565b5b91505092915050565b8273ffffffffffffffffffffffffffffffffffffffff1661183682610c47565b73ffffffffffffffffffffffffffffffffffffffff161461188c576040517f08c379a00000000000000000000000000000000000000000000000000000000081526004016118839061357b565b60405180910390fd5b600073ffffffffffffffffffffffffffffffffffffffff168273ffffffffffffffffffffffffffffffffffffffff1614156118fc576040517f08c379a00000000000000000000000000000000000000000000000000000000081526004016118f39061360d565b60405180910390fd5b611907838383611e71565b61191260008261167f565b6001600460008573ffffffffffffffffffffffffffffffffffffffff1673ffffffffffffffffffffffffffffffffffffffff168152602001908152602001600020600082825461196291906133b1565b925050819055506001600460008473ffffffffffffffffffffffffffffffffffffffff1673ffffffffffffffffffffffffffffffffffffffff16815260200190815260200160002060008282546119b9919061362d565b92505081905550816003600083815260200190815260200160002060006101000a81548173ffffffffffffffffffffffffffffffffffffffff021916908373ffffffffffffffffffffffffffffffffffffffff160217905550808273ffffffffffffffffffffffffffffffffffffffff168473ffffffffffffffffffffffffffffffffffffffff167fddf252ad1be2c89b69c2b068fc378daa952ba7f163c4a11628f55a4df523b3ef60405160405180910390a4505050565b60008060009054906101000a900473ffffffffffffffffffffffffffffffffffffffff169050816000806101000a81548173ffffffffffffffffffffffffffffffffffffffff021916908373ffffffffffffffffffffffffffffffffffffffff1602179055508173ffffffffffffffffffffffffffffffffffffffff168173ffffffffffffffffffffffffffffffffffffffff167f8be0079c531659141344cd1fd0a4f28419497f9722a3daafe3b4186f6b6457e060405160405180910390a35050565b8173ffffffffffffffffffffffffffffffffffffffff168373ffffffffffffffffffffffffffffffffffffffff161415611ba5576040517f08c379a0000000000000000000000000000000000000000000000000000000008152600401611b9c906136cf565b60405180910390fd5b80600660008573ffffffffffffffffffffffffffffffffffffffff1673ffffffffffffffffffffffffffffffffffffffff16815260200190815260200160002060008473ffffffffffffffffffffffffffffffffffffffff1673ffffffffffffffffffffffffffffffffffffffff16815260200190815260200160002060006101000a81548160ff0219169083151502179055508173ffffffffffffffffffffffffffffffffffffffff168373ffffffffffffffffffffffffffffffffffffffff167f17307eab39ab6107e8899845ad3d59bd9653f200f220920489ca2b5937696c3183604051611c969190612584565b60405180910390a3505050565b611cae848484611816565b611cba84848484611e76565b611cf9576040517f08c379a0000000000000000000000000000000000000000000000000000000008152600401611cf090613761565b60405180910390fd5b50505050565b606060405180602001604052806000815250905090565b6060611d218261160b565b611d60576040517f08c379a0000000000000000000000000000000000000000000000000000000008152600401611d57906137f3565b60405180910390fd5b6000611d6a611cff565b90506000815111611d8a5760405180602001604052806000815250611db5565b80611d9484611ffe565b604051602001611da59291906132cc565b6040516020818303038152906040525b915050919050565b611dc93360095461215f565b611dd56009548461217d565b82600a600060095481526020019081526020016000206000019080519060200190611e0192919061242d565b5081600a600060095481526020019081526020016000206001018190555080600a6000600954815260200190815260200160002060020160006101000a81548161ffff021916908361ffff160217905550600160096000828254611e65919061362d565b92505081905550505050565b505050565b6000611e978473ffffffffffffffffffffffffffffffffffffffff166121f1565b15611ff1578373ffffffffffffffffffffffffffffffffffffffff1663150b7a02611ec0611677565b8786866040518563ffffffff1660e01b8152600401611ee29493929190613868565b6020604051808303816000875af1925050508015611f1e57506040513d601f19601f82011682018060405250810190611f1b91906138c9565b60015b611fa1573d8060008114611f4e576040519150601f19603f3d011682016040523d82523d6000602084013e611f53565b606091505b50600081511415611f99576040517f08c379a0000000000000000000000000000000000000000000000000000000008152600401611f9090613761565b60405180910390fd5b805181602001fd5b63150b7a0260e01b7bffffffffffffffffffffffffffffffffffffffffffffffffffffffff1916817bffffffffffffffffffffffffffffffffffffffffffffffffffffffff191614915050611ff6565b600190505b949350505050565b60606000821415612046576040518060400160405280600181526020017f3000000000000000000000000000000000000000000000000000000000000000815250905061215a565b600082905060005b60008214612078578080612061906138f6565b915050600a82612071919061396e565b915061204e565b60008167ffffffffffffffff81111561209457612093612993565b5b6040519080825280601f01601f1916602001820160405280156120c65781602001600182028036833780820191505090505b5090505b60008514612153576001826120df91906133b1565b9150600a856120ee919061399f565b60306120fa919061362d565b60f81b8183815181106121105761210f6139d0565b5b60200101907effffffffffffffffffffffffffffffffffffffffffffffffffffffffffffff1916908160001a905350600a8561214c919061396e565b94506120ca565b8093505050505b919050565b612179828260405180602001604052806000815250612204565b5050565b6121868261160b565b6121c5576040517f08c379a00000000000000000000000000000000000000000000000000000000081526004016121bc90613a71565b60405180910390fd5b806007600084815260200190815260200160002090805190602001906121ec92919061242d565b505050565b600080823b905060008111915050919050565b61220e838361225f565b61221b6000848484611e76565b61225a576040517f08c379a000000000000000000000000000000000000000000000000000000000815260040161225190613761565b60405180910390fd5b505050565b600073ffffffffffffffffffffffffffffffffffffffff168273ffffffffffffffffffffffffffffffffffffffff1614156122cf576040517f08c379a00000000000000000000000000000000000000000000000000000000081526004016122c690613add565b60405180910390fd5b6122d88161160b565b15612318576040517f08c379a000000000000000000000000000000000000000000000000000000000815260040161230f90613b49565b60405180910390fd5b61232460008383611e71565b6001600460008473ffffffffffffffffffffffffffffffffffffffff1673ffffffffffffffffffffffffffffffffffffffff1681526020019081526020016000206000828254612374919061362d565b92505081905550816003600083815260200190815260200160002060006101000a81548173ffffffffffffffffffffffffffffffffffffffff021916908373ffffffffffffffffffffffffffffffffffffffff160217905550808273ffffffffffffffffffffffffffffffffffffffff16600073ffffffffffffffffffffffffffffffffffffffff167fddf252ad1be2c89b69c2b068fc378daa952ba7f163c4a11628f55a4df523b3ef60405160405180910390a45050565b82805461243990612cb0565b90600052602060002090601f01602090048101928261245b57600085556124a2565b82601f1061247457805160ff19168380011785556124a2565b828001600101855582156124a2579182015b828111156124a1578251825591602001919060010190612486565b5b5090506124af91906124b3565b5090565b5b808211156124cc5760008160009055506001016124b4565b5090565b6000604051905090565b600080fd5b600080fd5b60007fffffffff0000000000000000000000000000000000000000000000000000000082169050919050565b612519816124e4565b811461252457600080fd5b50565b60008135905061253681612510565b92915050565b600060208284031215612552576125516124da565b5b600061256084828501612527565b91505092915050565b60008115159050919050565b61257e81612569565b82525050565b60006020820190506125996000830184612575565b92915050565b600081519050919050565b600082825260208201905092915050565b60005b838110156125d95780820151818401526020810190506125be565b838111156125e8576000848401525b50505050565b6000601f19601f8301169050919050565b600061260a8261259f565b61261481856125aa565b93506126248185602086016125bb565b61262d816125ee565b840191505092915050565b6000602082019050818103600083015261265281846125ff565b905092915050565b6000819050919050565b61266d8161265a565b811461267857600080fd5b50565b60008135905061268a81612664565b92915050565b6000602082840312156126a6576126a56124da565b5b60006126b48482850161267b565b91505092915050565b600073ffffffffffffffffffffffffffffffffffffffff82169050919050565b60006126e8826126bd565b9050919050565b6126f8816126dd565b82525050565b600060208201905061271360008301846126ef565b92915050565b612722816126dd565b811461272d57600080fd5b50565b60008135905061273f81612719565b92915050565b6000806040838503121561275c5761275b6124da565b5b600061276a85828601612730565b925050602061277b8582860161267b565b9150509250929050565b61278e8161265a565b82525050565b60006020820190506127a96000830184612785565b92915050565b6000806000606084860312156127c8576127c76124da565b5b60006127d686828701612730565b93505060206127e786828701612730565b92505060406127f88682870161267b565b9150509250925092565b600061ffff82169050919050565b61281981612802565b82525050565b6000606082019050818103600083015261283981866125ff565b90506128486020830185612785565b6128556040830184612810565b949350505050565b60008060408385031215612874576128736124da565b5b60006128828582860161267b565b92505060206128938582860161267b565b9150509250929050565b6000806000606084860312156128b6576128b56124da565b5b60006128c48682870161267b565b93505060206128d586828701612730565b92505060406128e68682870161267b565b9150509250925092565b600060208284031215612906576129056124da565b5b600061291484828501612730565b91505092915050565b61292681612569565b811461293157600080fd5b50565b6000813590506129438161291d565b92915050565b600080604083850312156129605761295f6124da565b5b600061296e85828601612730565b925050602061297f85828601612934565b9150509250929050565b600080fd5b600080fd5b7f4e487b7100000000000000000000000000000000000000000000000000000000600052604160045260246000fd5b6129cb826125ee565b810181811067ffffffffffffffff821117156129ea576129e9612993565b5b80604052505050565b60006129fd6124d0565b9050612a0982826129c2565b919050565b600067ffffffffffffffff821115612a2957612a28612993565b5b612a32826125ee565b9050602081019050919050565b82818337600083830152505050565b6000612a61612a5c84612a0e565b6129f3565b905082815260208101848484011115612a7d57612a7c61298e565b5b612a88848285612a3f565b509392505050565b600082601f830112612aa557612aa4612989565b5b8135612ab5848260208601612a4e565b91505092915050565b60008060008060808587031215612ad857612ad76124da565b5b6000612ae687828801612730565b9450506020612af787828801612730565b9350506040612b088782880161267b565b925050606085013567ffffffffffffffff811115612b2957612b286124df565b5b612b3587828801612a90565b91505092959194509250565b600080fd5b600080fd5b60008083601f840112612b6157612b60612989565b5b8235905067ffffffffffffffff811115612b7e57612b7d612b41565b5b602083019150836001820283011115612b9a57612b99612b46565b5b9250929050565b612baa81612802565b8114612bb557600080fd5b50565b600081359050612bc781612ba1565b92915050565b60008060008060608587031215612be757612be66124da565b5b600085013567ffffffffffffffff811115612c0557612c046124df565b5b612c1187828801612b4b565b94509450506020612c248782880161267b565b9250506040612c3587828801612bb8565b91505092959194509250565b60008060408385031215612c5857612c576124da565b5b6000612c6685828601612730565b9250506020612c7785828601612730565b9150509250929050565b7f4e487b7100000000000000000000000000000000000000000000000000000000600052602260045260246000fd5b60006002820490506001821680612cc857607f821691505b60208210811415612cdc57612cdb612c81565b5b50919050565b7f4552433732313a20617070726f76656420717565727920666f72206e6f6e657860008201527f697374656e7420746f6b656e0000000000000000000000000000000000000000602082015250565b6000612d3e602c836125aa565b9150612d4982612ce2565b604082019050919050565b60006020820190508181036000830152612d6d81612d31565b9050919050565b7f4552433732313a20617070726f76616c20746f2063757272656e74206f776e6560008201527f7200000000000000000000000000000000000000000000000000000000000000602082015250565b6000612dd06021836125aa565b9150612ddb82612d74565b604082019050919050565b60006020820190508181036000830152612dff81612dc3565b9050919050565b7f4552433732313a20617070726f76652063616c6c6572206973206e6f74206f7760008201527f6e6572206e6f7220617070726f76656420666f7220616c6c0000000000000000602082015250565b6000612e626038836125aa565b9150612e6d82612e06565b604082019050919050565b60006020820190508181036000830152612e9181612e55565b9050919050565b7f4552433732313a207472616e736665722063616c6c6572206973206e6f74206f60008201527f776e6572206e6f7220617070726f766564000000000000000000000000000000602082015250565b6000612ef46031836125aa565b9150612eff82612e98565b604082019050919050565b60006020820190508181036000830152612f2381612ee7565b9050919050565b7f706169642076616c7565206973206e6f7420657175616c20746f20746865207060008201527f7269636500000000000000000000000000000000000000000000000000000000602082015250565b6000612f866024836125aa565b9150612f9182612f2a565b604082019050919050565b60006020820190508181036000830152612fb581612f79565b9050919050565b600081905092915050565b50565b6000612fd7600083612fbc565b9150612fe282612fc7565b600082019050919050565b6000612ff882612fca565b9150819050919050565b7f5472616e73666572206661696c00000000000000000000000000000000000000600082015250565b6000613038600d836125aa565b915061304382613002565b602082019050919050565b600060208201905081810360008301526130678161302b565b9050919050565b7f4552433732313a206f776e657220717565727920666f72206e6f6e657869737460008201527f656e7420746f6b656e0000000000000000000000000000000000000000000000602082015250565b60006130ca6029836125aa565b91506130d58261306e565b604082019050919050565b600060208201905081810360008301526130f9816130bd565b9050919050565b7f4552433732313a2062616c616e636520717565727920666f7220746865207a6560008201527f726f206164647265737300000000000000000000000000000000000000000000602082015250565b600061315c602a836125aa565b915061316782613100565b604082019050919050565b6000602082019050818103600083015261318b8161314f565b9050919050565b7f4f776e61626c653a2063616c6c6572206973206e6f7420746865206f776e6572600082015250565b60006131c86020836125aa565b91506131d382613192565b602082019050919050565b600060208201905081810360008301526131f7816131bb565b9050919050565b7f45524337323155524953746f726167653a2055524920717565727920666f722060008201527f6e6f6e6578697374656e7420746f6b656e000000000000000000000000000000602082015250565b600061325a6031836125aa565b9150613265826131fe565b604082019050919050565b600060208201905081810360008301526132898161324d565b9050919050565b600081905092915050565b60006132a68261259f565b6132b08185613290565b93506132c08185602086016125bb565b80840191505092915050565b60006132d8828561329b565b91506132e4828461329b565b91508190509392505050565b7f6372656174696e67206120636f6e747261637420636f7374732031303030303060008201527f3030303030303030303030302077656900000000000000000000000000000000602082015250565b600061334c6030836125aa565b9150613357826132f0565b604082019050919050565b6000602082019050818103600083015261337b8161333f565b9050919050565b7f4e487b7100000000000000000000000000000000000000000000000000000000600052601160045260246000fd5b60006133bc8261265a565b91506133c78361265a565b9250828210156133da576133d9613382565b5b828203905092915050565b7f4f776e61626c653a206e6577206f776e657220697320746865207a65726f206160008201527f6464726573730000000000000000000000000000000000000000000000000000602082015250565b60006134416026836125aa565b915061344c826133e5565b604082019050919050565b6000602082019050818103600083015261347081613434565b9050919050565b7f4552433732313a206f70657261746f7220717565727920666f72206e6f6e657860008201527f697374656e7420746f6b656e0000000000000000000000000000000000000000602082015250565b60006134d3602c836125aa565b91506134de82613477565b604082019050919050565b60006020820190508181036000830152613502816134c6565b9050919050565b7f4552433732313a207472616e73666572206f6620746f6b656e2074686174206960008201527f73206e6f74206f776e0000000000000000000000000000000000000000000000602082015250565b60006135656029836125aa565b915061357082613509565b604082019050919050565b6000602082019050818103600083015261359481613558565b9050919050565b7f4552433732313a207472616e7366657220746f20746865207a65726f2061646460008201527f7265737300000000000000000000000000000000000000000000000000000000602082015250565b60006135f76024836125aa565b91506136028261359b565b604082019050919050565b60006020820190508181036000830152613626816135ea565b9050919050565b60006136388261265a565b91506136438361265a565b9250827fffffffffffffffffffffffffffffffffffffffffffffffffffffffffffffffff0382111561367857613677613382565b5b828201905092915050565b7f4552433732313a20617070726f766520746f2063616c6c657200000000000000600082015250565b60006136b96019836125aa565b91506136c482613683565b602082019050919050565b600060208201905081810360008301526136e8816136ac565b9050919050565b7f4552433732313a207472616e7366657220746f206e6f6e20455243373231526560008201527f63656976657220696d706c656d656e7465720000000000000000000000000000602082015250565b600061374b6032836125aa565b9150613756826136ef565b604082019050919050565b6000602082019050818103600083015261377a8161373e565b9050919050565b7f4552433732314d657461646174613a2055524920717565727920666f72206e6f60008201527f6e6578697374656e7420746f6b656e0000000000000000000000000000000000602082015250565b60006137dd602f836125aa565b91506137e882613781565b604082019050919050565b6000602082019050818103600083015261380c816137d0565b9050919050565b600081519050919050565b600082825260208201905092915050565b600061383a82613813565b613844818561381e565b93506138548185602086016125bb565b61385d816125ee565b840191505092915050565b600060808201905061387d60008301876126ef565b61388a60208301866126ef565b6138976040830185612785565b81810360608301526138a9818461382f565b905095945050505050565b6000815190506138c381612510565b92915050565b6000602082840312156138df576138de6124da565b5b60006138ed848285016138b4565b91505092915050565b60006139018261265a565b91507fffffffffffffffffffffffffffffffffffffffffffffffffffffffffffffffff82141561393457613933613382565b5b600182019050919050565b7f4e487b7100000000000000000000000000000000000000000000000000000000600052601260045260246000fd5b60006139798261265a565b91506139848361265a565b9250826139945761399361393f565b5b828204905092915050565b60006139aa8261265a565b91506139b58361265a565b9250826139c5576139c461393f565b5b828206905092915050565b7f4e487b7100000000000000000000000000000000000000000000000000000000600052603260045260246000fd5b7f45524337323155524953746f726167653a2055524920736574206f66206e6f6e60008201527f6578697374656e7420746f6b656e000000000000000000000000000000000000602082015250565b6000613a5b602e836125aa565b9150613a66826139ff565b604082019050919050565b60006020820190508181036000830152613a8a81613a4e565b9050919050565b7f4552433732313a206d696e7420746f20746865207a65726f2061646472657373600082015250565b6000613ac76020836125aa565b9150613ad282613a91565b602082019050919050565b60006020820190508181036000830152613af681613aba565b9050919050565b7f4552433732313a20746f6b656e20616c7265616479206d696e74656400000000600082015250565b6000613b33601c836125aa565b9150613b3e82613afd565b602082019050919050565b60006020820190508181036000830152613b6281613b26565b905091905056fea2646970667358221220babc0790988d19860c3104297ecc851c9089b04e0380f14a52cd3a8cfe9f5d4664736f6c634300080b0033",
  "immutableReferences": {},
  "source": "// SPDX-License-Identifier: MIT\npragma solidity >=0.4.22 <0.9.0;\n\nimport \"@openzeppelin/contracts/token/ERC721/ERC721.sol\";\nimport \"@openzeppelin/contracts/access/Ownable.sol\";\nimport \"@openzeppelin/contracts/token/ERC721/extensions/ERC721URIStorage.sol\";\n\ncontract BloggerNFT is Ownable, ERC721URIStorage {\n  bool internal status;\n  uint256 public totalSupply;\n  \n  event SupplyCount(uint256);\n  struct auctionedSpace {\n    string url;\n    uint256 price;\n    uint16 year;\n    \n  }  \n\n  mapping (uint256 => auctionedSpace) public id_to_data;\n  \n  constructor() ERC721(\"BloggerNFT\",\"BNFT\"){\n\n  }\n  \n  function mint_internal (string memory url, uint256 price, uint16 year) internal {\n    \n    _safeMint(msg.sender, totalSupply);\n    _setTokenURI(totalSupply, url);\n    \n    id_to_data[totalSupply].url = url;\n    id_to_data[totalSupply].price = price;\n    id_to_data[totalSupply].year = year;\n    \n    totalSupply += 1;\n  }\n\n  function mint_external(string calldata url, uint256 price, uint16 year) external payable returns(uint256){\n    require(msg.value == 100000000000000000 wei, \"creating a contract costs 100000000000000000 wei\");\n\n    mint_internal(url, price, year);\n    approve(owner(), totalSupply-1);\n\n    payable(owner()).transfer(100000000000000000 wei); \n\n    emit SupplyCount(totalSupply-1);\n    return totalSupply-1;\n       \n    }\n\n  \n  function getPrice(uint256 tokenId) public view returns(string memory,uint256,uint16){\n    return (id_to_data[tokenId].url, id_to_data[tokenId].price,id_to_data[tokenId].year);\n  }\n\n\n    \n  function sell_nft(uint256 tokenId, address buyer, uint256 price) external  {\n    \n    address seller = ownerOf(tokenId); \n    \n    transferFrom(seller, buyer, tokenId);\n    (bool success,) = seller.call{value: price}(\"\");\n    require(success,\"Transfer fail\");\n\n    }\n\n  function buy_nft(uint256 tokenId, uint256 newPrice) external payable{\n    uint256 price = id_to_data[tokenId].price;\n    id_to_data[tokenId].price = newPrice;\n\n    require(msg.value >= price,\"paid value is not equal to the price\");\n\n    (bool success,) = address(this).call{value: price,gas: 30000}(\"\");\n    require(success,\"Transfer fail\");\n\n  }\n\n\n  function getOwnerOf(uint256 tokenId) public view returns(address){\n\n    return ownerOf(tokenId);\n  }\n\n  function getApproverOf(uint256 tokenId) public view returns(address){\n    return getApproved(tokenId);\n  }\n\n\n  function getTotalSupply() public view returns(uint256){\n    return totalSupply;\n  }\n\n  function setApproverForSale(uint256 tokenId) external {\n    approve(owner(), tokenId);\n  }\n\n  fallback() external payable{\n\n    status=false;\n    \n  }\n\n  receive() external payable{\n    status=true;\n  }\n\n  \n\n  }\n\n\n\n  \n\n",
  "sourcePath": "C:\\Users\\gaura\\Desktop\\WebDevelopment\\Blogger\\contracts\\BloggerNFT.sol",
  "compiler": {
    "name": "solc",
    "version": "0.8.11+commit.d7f03943.Emscripten.clang"
  },
  "schemaVersion": "3.4.4",
  "updatedAt": "2022-02-01T20:10:26.107Z",
  "networkType": "ethereum",
  "devdoc": {
    "kind": "dev",
    "methods": {
      "approve(address,uint256)": {
        "details": "See {IERC721-approve}."
      },
      "balanceOf(address)": {
        "details": "See {IERC721-balanceOf}."
      },
      "getApproved(uint256)": {
        "details": "See {IERC721-getApproved}."
      },
      "isApprovedForAll(address,address)": {
        "details": "See {IERC721-isApprovedForAll}."
      },
      "name()": {
        "details": "See {IERC721Metadata-name}."
      },
      "owner()": {
        "details": "Returns the address of the current owner."
      },
      "ownerOf(uint256)": {
        "details": "See {IERC721-ownerOf}."
      },
      "renounceOwnership()": {
        "details": "Leaves the contract without owner. It will not be possible to call `onlyOwner` functions anymore. Can only be called by the current owner. NOTE: Renouncing ownership will leave the contract without an owner, thereby removing any functionality that is only available to the owner."
      },
      "safeTransferFrom(address,address,uint256)": {
        "details": "See {IERC721-safeTransferFrom}."
      },
      "safeTransferFrom(address,address,uint256,bytes)": {
        "details": "See {IERC721-safeTransferFrom}."
      },
      "setApprovalForAll(address,bool)": {
        "details": "See {IERC721-setApprovalForAll}."
      },
      "supportsInterface(bytes4)": {
        "details": "See {IERC165-supportsInterface}."
      },
      "symbol()": {
        "details": "See {IERC721Metadata-symbol}."
      },
      "tokenURI(uint256)": {
        "details": "See {IERC721Metadata-tokenURI}."
      },
      "transferFrom(address,address,uint256)": {
        "details": "See {IERC721-transferFrom}."
      },
      "transferOwnership(address)": {
        "details": "Transfers ownership of the contract to a new account (`newOwner`). Can only be called by the current owner."
      }
    },
    "version": 1
  },
  "userdoc": {
    "kind": "user",
    "methods": {},
    "version": 1
  }
}